:020000040000FA
:100000000C9464000C948C000C948C000C948C0068
:100010000C948C000C948C000C948C000C94610457
:100020000C948C000C948C000C948C000C948C0020
:100030000C948C000C948C000C948C000C948C0010
:100040000C94BD040C948C000C948C000C948C00CB
:100050000C948C000C948C000C948C000C948C00F0
:100060000C948C000C948C000000000023002600EF
:10007000290000000000240027002A0000000008DA
:10008000000201000003040700000000000000005F
:10009000010204081020408001020408102001021F
:1000A0000408102000000000250028002B00040494
:1000B0000404040404040202020202020303030310
:1000C000030302003E138E1311241FBECFEFD8E0AE
:1000D000DEBFCDBF11E0A0E0B1E0ECE1FBE202C089
:1000E00005900D92A630B107D9F724E0A6E0B1E063
:1000F00001C01D92A034B207E1F710E0C3E6D0E0E2
:1001000004C02197FE010E947B15C236D107C9F7B2
:100110000E9407050C9481150C9400009091050134
:1001200089130DC0E2ECF0E0E4919FEF909305019C
:10013000E13009F431C068F1E23009F433C090E0F5
:10014000FC01E458FF4F2491FC01E057FF4F34912C
:10015000FC01E255FF4FE491EE23D1F0222351F050
:10016000233009F43AC078F5213009F43CC022303C
:1001700009F43DC0F0E0EE0FFF1FEC55FF4FA591D5
:10018000B4918FB7F894EC9130953E233C938FBF98
:10019000089510926E00D3CF90916F009D7F909341
:1001A0006F00CDCF909170009D7F9093700091E093
:1001B0009093B0009091B100987F94609093B100BB
:1001C0001092B300BCCF2730A9F02830C9F02430FA
:1001D00089F6809180008F7D03C0809180008F77A9
:1001E00080938000C7CF84B58F7784BDC3CF84B59B
:1001F0008F7DFBCF8091B0008F778093B000BACF16
:100200008091B0008F7DF9CFCF93DF9390E0FC0118
:10021000E057FF4F249182559F4FFC018491882322
:10022000D1F090E0880F991FFC01EE58FF4FA59187
:10023000B491FC01EC55FF4FC591D49161110EC0F2
:100240009FB7F8948C91E22FE0958E238C932881B0
:10025000E223E8839FBFDF91CF9108958FB7F89491
:10026000EC91E22BEC938FBFF6CF8F929F92AF92DF
:10027000BF92CF92DF92EF92FF92CF936C01809169
:100280000501823069F08F3F09F470C0CF91FF9073
:10029000EF90DF90CF90BF90AF909F908F90089598
:1002A000E2ECF0E0C491C7FDF1CF61E082E00E9492
:1002B0000401CC2319F0C23009F022C1F12CE12C49
:1002C00060E072E18AE790E0A70196010E94E413E2
:1002D00049015A01DA01C9010197A109B1098F3F0A
:1002E0009105A105B10509F00CF4EEC060E472E4DB
:1002F0008FE090E0A70196010E94E413215031099C
:1003000041095109C23009F0A0C082E02F3F3105F8
:100310004105510509F00CF488C160E970ED83E0F6
:1003200090E0A70196010E94E41321503109410990
:10033000510983E02F3F31054105510509F00CF4C7
:1003400074C168E478EE81E090E0A70196010E9414
:10035000E41321503109410951092F3F310541056D
:10036000510511F00CF08FC084E05FC182E08093F2
:100370000501E2ECF0E0C491CF3F09F487CFC13032
:1003800021F150F0C23009F43EC0C7FD7FCF61E0DB
:1003900082E00E9404018FCF14BC15BC84B582603A
:1003A00084BD85B5816085BDE0EBF0E0E491F0E0CF
:1003B000EE0FFF1FEC55FF4F85919491E2E9F0E0BD
:1003C000E491E0933304C0E070CF1092800010926B
:1003D00081008091810088608093810080918100FC
:1003E000816080938100E0EBF0E0E491F0E0EE0FBB
:1003F000FF1FEC55FF4F85919491E2E9F0E0E49105
:10040000E093320452CF1092B0001092B10080916C
:10041000B00082608093B0008091B10081608093D1
:10042000B100E0EBF0E0E491F0E0EE0FFF1FEC55DF
:10043000FF4F859194919093310480933004E2E9C9
:10044000F0E0E491E0932F0430CF2F3F31054105D8
:10045000510509F00CF452C068E478EE81E090E0B8
:10046000A70196010E94E413215031094109510965
:10047000CC2309F4AFC02F3F31054105510511F0E0
:100480000CF0B0C071CF64E274EF80E090E0A7019F
:1004900096010E94E413215031094109510985E078
:1004A0002F3F31054105510509F008F4BEC062E156
:1004B0007AE780E090E0A70196010E94E4132150C2
:1004C0003109410951099CC09C0181E0C111ADC0B5
:1004D00095B5987F892B85BD27BD8FEF9FEFDC01F8
:1004E00080933C0490933D04A0933E04B0933F045A
:1004F00080916E00826080936E00C8CE82E0E6CF6D
:10050000F12CE12C60E072E18AE790E0A70196010E
:100510000E94E413215031094109510991E021154C
:10052000310581E0480751056CF068E478EE81E020
:1005300090E0A70196010E94E4132150310941097E
:10054000510993E0C13009F076C080918100887F25
:10055000892B8093810030938900209388008FEF4E
:100560009FEFDC018093380490933904A0933A0400
:10057000B0933B0480916F00826080936F0086CEC1
:100580002093B3008FEF9FEFDC01809334049093AE
:100590003504A0933604B0933704809170008260D4
:1005A0008093700073CE84E02F3F310541055105E3
:1005B00009F008F48DCF9AE0B594A79497948794A6
:1005C0009A95D1F7A50194012150310941095109AA
:1005D00085E07ECF83E02F3F31054105510509F0CD
:1005E0000CF476CF62E17AE780E090E0A701960113
:1005F0000E94E4132150310941095109CC2399F299
:1006000086E02F3F31054105510579F070F08AE011
:10061000B594A794979487948A95D1F7A5019401EE
:10062000215031094109510987E09091B100987F2B
:10063000892B8093B100C13009F48DCFC23009F409
:100640009FCFC11123CE48CF3FB7F89480910F01BF
:1006500090911001A0911101B091120126B5A89BB3
:1006600005C02F3F19F00196A11DB11D3FBFBA2F44
:10067000A92F982F8827BC01CD01620F711D811D04
:10068000911D42E0660F771F881F991F4A95D1F789
:1006900008958F929F92AF92BF92CF92DF92EF9286
:1006A000FF924B015C010E9424036B017C010E94BC
:1006B00024036C197D098E099F09683E73408105EA
:1006C0009105A8F321E0821A9108A108B10888EEEB
:1006D000C80E83E0D81EE11CF11C81149104A10412
:1006E000B10429F7FF90EF90DF90CF90BF90AF90CB
:1006F0009F908F9008952FB7F89460910B0170919F
:100700000C0180910D0190910E012FBF0895DC0125
:100710001496ED91FC911597908111968C9180958E
:10072000892380830895FC01611102C00C94870322
:10073000A481B5819C918181892B8C930895CF935D
:10074000DF93DC01EC91F0E0EE0FFF1FE859FF4F63
:10075000C591D491988111968C91982381E009F4E8
:1007600080E0DF91CF910895DC0170E0FB01E0575C
:10077000FF4FE4911196EC93119762557F4FFB0167
:1007800024912C9330E0220F331FF901EE58FF4FD4
:100790008591949113969C938E931297F901EC5541
:1007A000FF4F8591949115969C938E93149708957D
:1007B000CF92DF92EF92FF920E947B036B017C014C
:1007C000C0920601D0920701E0920801F09209015F
:1007D0000E947B036C197D098E099F09683873415B
:1007E0008105910548F48091EB039091EC030F96FD
:1007F000909388018093870180918701909188016F
:10080000893E934034F088EE93E090938801809382
:100810008701809187019091880197FF04C0109211
:10082000880110928701FF90EF90DF90CF9008959C
:100830008091FE03882369F084E690E00E943501F0
:1008400068EC70E080E090E00E94490382E00C9444
:100850008E0008958091FE03882369F080E293E082
:100860000E94350162E370E080E090E00E9449035D
:1008700082E00C948E000895FC01A281B3818C91DA
:100880009181909598239C93A481B5819C918181BD
:10089000809589238C9308951F93CF93DF93EB0169
:1008A0006FEF70E00E945315182FCE010E94D613EF
:1008B000612FCE0101960E94D613DF91CF911F9137
:1008C00008951F920F920FB60F9211242F933F930A
:1008D0004F935F936F937F938F939F93AF93BF9348
:1008E000EF93FF938091340490913504A0913604E6
:1008F000B0913704892B8A2B8B2BD1F190912F0447
:10090000E0913004F09131048081892780838091C7
:10091000340490913504A0913604B0913704181630
:1009200019061A061B069CF4809134049091350434
:10093000A0913604B09137040197A109B1098093C1
:10094000340490933504A0933604B0933704FF9198
:10095000EF91BF91AF919F918F917F916F915F9137
:100960004F913F912F910F900FBE0F901F901895B0
:10097000809105010E948E00EACF1F920F920FB660
:100980000F9211242F933F938F939F93AF93BF9315
:1009900080910B0190910C01A0910D01B0910E017D
:1009A00030910A0123E0230F2D3758F50196A11D40
:1009B000B11D20930A0180930B0190930C01A09329
:1009C0000D01B0930E0180910F0190911001A09143
:1009D0001101B09112010196A11DB11D80930F016B
:1009E00090931001A0931101B0931201BF91AF91A8
:1009F0009F918F913F912F910F900FBE0F901F905D
:100A0000189526E8230F0296A11DB11DD2CFCF93D2
:100A1000DF9300D000D0CDB7DEB7789484B5826084
:100A200084BD84B5816084BD85B5826085BD85B592
:100A3000816085BD80916E00816080936E00109210
:100A4000810080918100826080938100809181008B
:100A5000816080938100809180008160809380001C
:100A60008091B10084608093B1008091B00081607A
:100A70008093B00080917A00846080937A008091A6
:100A80007A00826080937A0080917A0081608093FE
:100A90007A0080917A00806880937A001092C10079
:100AA00061E089E00E94040161E08AE00E940401A3
:100AB00061E08BE00E94040161E08CE00E9404018F
:100AC00061E08DE00E94040161E08EE00E9404017B
:100AD00061E08FE00E94040161E080E10E94040176
:100AE00060E080E00E94040160E081E00E94040177
:100AF00060E083E00E94040160E084E00E94040161
:100B000060E085E00E94040160E086E00E9404014C
:100B100060E087E00E94040160E088E00E94040138
:100B200084E190E00E94CE13898385E190E00E94E9
:100B3000CE1390E0E980FF24FA94EF9C800D911D84
:100B4000112490938801809387018AE090E00E94AD
:100B5000CE1389838BE090E00E94CE1390E0098150
:100B60000F9D800D911D112490930401809303012A
:100B7000F0E48F2EF6E09F2E67E1C62E64E0D62EBD
:100B800078ECA72E75E0B72E22242394312C89E22D
:100B900094E00E949F0391E0811190E090932804DB
:100BA00082E294E00E949F0391E0811190E0909393
:100BB00021048BE194E00E949F0391E0811190E079
:100BC00090931A0484E194E00E949F03082F11E09F
:100BD000811110E0109313048DE094E00E949F03B4
:100BE00091E0811190E090930C0486E094E00E94E3
:100BF0009F0391E0811190E0909305048FEF93E0C3
:100C00000E949F0391E0811190E09093FE0388EF92
:100C100093E00E949F0391E0811190E09093F7038D
:100C20008091F603181791F001110CC01092F50392
:100C30000E947B036093F1037093F2038093F303AC
:100C40009093F4031092F0031093F6030111F3C193
:100C50000E947B030091F1031091F2032091F303B2
:100C60003091F403601B710B820B930B653C794050
:100C70008105910508F4E1C121E02093F0038EE4A1
:100C800080937C0080917A00806480937A008091C8
:100C90007A0086FDFCCF809178002091790030E0C9
:100CA000322F2227032E000C440B550B282B60E01B
:100CB00070E381E190E00E94E413CA01B9010E944F
:100CC0009E1420E030E04AE754E40E942A142B01ED
:100CD0003C0126E636E646E850E40E944E1518161A
:100CE00044F561E081E791E00E94930361E08AE6C8
:100CF00091E00E94930361E084E691E00E949303F7
:100D000061E08EE591E00E94930361E088E591E067
:100D10000E94930361E082E591E00E94930361E009
:100D20008CE491E00E94930361E086E491E00E94EC
:100D3000930326E636E646E850E4C301B2010E947A
:100D4000251418168CF120E030E040E850E4C3018F
:100D5000B2010E944E1518163CF561E081E791E062
:100D60000E94930361E08AE691E00E94930361E0B0
:100D700084E691E00E94930361E08EE591E00E9499
:100D8000930361E088E591E00E94930361E082E5CE
:100D900091E00E94930361E08CE491E00E94930350
:100DA00086E491E00E94870320E030E040E850E4D0
:100DB000C301B2010E942514181684F123E333E322
:100DC00043E750E4C301B2010E944E15181634F5F2
:100DD00061E081E791E00E94930361E08AE691E09F
:100DE0000E94930361E084E691E00E94930361E036
:100DF0008EE591E00E94930361E088E591E00E9416
:100E0000930361E082E591E00E9493038CE491E01A
:100E10000E94870386E491E00E94870323E333E383
:100E200043E750E4C301B2010E94251418167CF177
:100E300026E636E646E650E4C301B2010E944E15AE
:100E400018162CF561E081E791E00E94930361E0C0
:100E50008AE691E00E94930361E084E691E00E94BB
:100E6000930361E08EE591E00E94930361E088E5E1
:100E700091E00E94930382E591E00E9487038CE455
:100E800091E00E94870386E491E00E94870326E6B2
:100E900036E646E650E4C301B2010E942514181656
:100EA00074F12AE939E949E550E4C301B2010E942D
:100EB0004E15181624F561E081E791E00E94930336
:100EC00061E08AE691E00E94930361E084E691E0AC
:100ED0000E94930361E08EE591E00E94930388E510
:100EE00091E00E94870382E591E00E9487038CE4F1
:100EF00091E00E94870386E491E00E9487032AE93B
:100F000039E949E550E4C301B2010E9425141816DD
:100F10006CF12DEC3CEC4CE450E4C301B2010E94B6
:100F20004E1518161CF561E081E791E00E949303CD
:100F300061E08AE691E00E94930361E084E691E03B
:100F40000E9493038EE591E00E94870388E591E07B
:100F50000E94870382E591E00E9487038CE491E080
:100F60000E94870386E491E00E9487032DEC3CEC0D
:100F70004CE450E4C301B2010E942514181664F138
:100F800020E030E040E450E4C301B2010E944E157D
:100F9000181614F561E081E791E00E94930361E087
:100FA0008AE691E00E94930384E691E00E94870321
:100FB0008EE591E00E94870388E591E00E94870317
:100FC00082E591E00E9487038CE491E00E94870310
:100FD00086E491E00E94870320E030E040E450E4A2
:100FE000C301B2010E94251487FF21C061E081E79F
:100FF00091E00E9493038AE691E00E94870384E6D1
:1010000091E00E9487038EE591E00E94870388E5C6
:1010100091E00E94870382E591E00E9487038CE4BF
:1010200091E00E94870386E491E00E94870380910B
:101030001304811102C01092F00380911A04909160
:10104000EF03981759F0882339F031E03093F50316
:101050001092EE031092ED038093EF038091F00362
:101060008111A6C087E480937C0080917A0080641F
:1010700080937A0080917A0086FDFCCF20917800E1
:10108000309179003093EC032093EB038091E503DA
:101090009091E603FC01EE0FFF1FEE0FFF1FE357D9
:1010A000FE4F032E000C440B550B208331834283EB
:1010B00053830196863991050CF0EEC09093E603B8
:1010C0008093E503EDE8F1E060E070E0CB01019191
:1010D000119121913191600F711F821F931F45EE75
:1010E00053E04E175F0799F76093E7037093E803A7
:1010F0008093E9039093EA0326E930E040E050E072
:101100000E94031429013A014092890150928A01F8
:1011100060928B0170928C0180918701909188017F
:101120007C01990F000B110BCA01B9016E197F09DF
:10113000800B910B23E0660F771F881F991F2A955C
:10114000D1F72091030130910401032E000C440BD0
:10115000550B2E193F09400B510B0E94E413293007
:1011600031050CF09EC0309386012093850180915B
:1011700085019091860197FF04C01092860110921C
:1011800085011CED410E511C2CED421651040CF44E
:101190008FC050928401409283018091830190918D
:1011A00084018134964024F09092840180928301DE
:1011B0001091F70380918201811791F010928101C3
:1011C0001092EE031092ED038CED90E090930201EB
:1011D0008093010190938401809383011093820195
:1011E0000091F503809180018017B9F0002389F008
:1011F00010927F0110927E0191E090937D010E94F8
:101200007B036093790170937A0180937B019093C3
:101210007C01109281010093800180917D018130D9
:1012200009F465C5113009F451C280910504882381
:10123000E1F0109278019CEDE92EF12CF092020180
:10124000E0920101F0928401E092830182E00E9429
:101250008E0010928601109285011092EE0310927A
:10126000ED03FF24F394F092770100918501109132
:101270008601101611061CF561E081E791E00E94DD
:10128000930321E020937801023011051CF58AE6D2
:1012900091E00E94870326C01092E6031092E503B6
:1012A00011CF08E010E010938601009385015FCF15
:1012B0004CED50E050938401409383016ECF81E761
:1012C00091E00E948703809170018111E0CF10921C
:1012D0007801DDCF61E08AE691E00E94930302305D
:1012E000110529F484E691E00E94870308C061E0BB
:1012F00084E691E00E9493030330110529F48EE502
:1013000091E00E94870308C061E08EE591E00E94B1
:1013100093030430110529F488E591E00E948703C6
:1013200008C061E088E591E00E9493030530110553
:1013300029F482E591E00E94870308C061E082E51C
:1013400091E00E9493030630110529F48CE491E0AA
:101350000E94870308C061E08CE491E00E9493033F
:101360000730110529F486E491E00E94870305C047
:1013700061E086E491E00E9493038091F50381117E
:101380002CC610927001083011050CF0F9C580913F
:1013900083019091840190930201809301018091D7
:1013A000280490912A01981751F10091030110919E
:1013B0000401882309F487C50E947B0360932601FA
:1013C00070932701809328019093290104511109FA
:1013D000109304010093030180918701909188018B
:1013E0004496801791070CF06BC5011514400CF062
:1013F00067C50E942A048091280480932A010091E5
:1014000087011091880180912804882309F448C03D
:1014100060900301709004010E947B0320912601DB
:10142000309127014091280150912901621B730BD3
:10143000840B950B653F71408105910588F10E94F1
:101440007B0320912201309123014091240150918E
:101450002501621B730B840B950B653671058105A5
:101460009105F0F084E1681A7108709204016092AD
:101470000301C8014496861597050CF02AC561142E
:1014800094E079060CF025C50E942A040E947B0393
:10149000609322017093230180932401909325018E
:1014A000809103019091040144973CF484E1E82E7B
:1014B000F12CF0920401E09203012091030130919C
:1014C0000401C8014396821793072CF0019690936C
:1014D00004018093030180912104909121019817C8
:1014E00049F16090030170900401882309F4F7C466
:1014F0000E947B036093260170932701809328014B
:101500009093290124E1620E711C70920401609293
:1015100003010C5E1F4F061517050CF0DDC46114A6
:1015200034E073060CF0D8C40E942A048091210490
:101530008093210170902104772009F449C0009123
:101540000301109104010E947B0320912601309138
:1015500027014091280150912901621B730B840BD4
:10156000950B653F71408105910590F10E947B03C9
:1015700020912201309123014091240150912501B5
:10158000621B730B840B950B653671058105910504
:10159000F8F00C5E1F4F109304010093030180913B
:1015A0008701909188014496801791070CF09DC4A3
:1015B000011514400CF099C40E942A040E947B0378
:1015C000609322017093230180932401909325015D
:1015D00080910301909104018130944034F020E027
:1015E00034E0309304012093030180912804882380
:1015F00071F0772061F00E94180440E052E05093AF
:101600000401409303011092880110928701109108
:101610000C04809105048111FBC680912001811783
:1016200009F11123F9F051E0509338010E942A0486
:101630000E947B0360931C0170931D0180931E0127
:1016400090931F0130921B0120921A010E947B038C
:1016500060931601709317018093180190931901FC
:101660000E94D8031093200110921501D7C6D09282
:101670000201C092010193CED0920201C0920101F9
:10168000EDC481E791E00E94870361E08AE691E082
:101690000E94930384E691E00E94870361E08EE557
:1016A00091E00E94930388E591E00E94870361E046
:1016B00082E591E00E9493038CE491E00E9487030D
:1016C00061E086E491E00E94930314C5809181015A
:1016D0008111B4C0809138018111B0C000918501A1
:1016E000109186018091ED039091EE038017910790
:1016F00024F41093EE030093ED0310161106B4F4D6
:1017000061E081E791E00E94930351E050937801FA
:1017100002301105E4F48091ED039091EE030297FD
:1017200021F18AE691E00E94870319C0809170013F
:10173000811102C0109278018091ED039091EE0327
:10174000019779F381E791E00E948703E4CF61E09C
:101750008AE691E00E9493030230110559F48091CA
:10176000ED039091EE03039799F084E691E00E94D7
:10177000870308C061E084E691E00E949303033090
:10178000110559F48091ED039091EE03049799F0BF
:101790008EE591E00E94870308C061E08EE591E04C
:1017A0000E9493030430110559F48091ED03909148
:1017B000EE03059799F088E591E00E94870308C041
:1017C00061E088E591E00E9493030530110559F42A
:1017D0008091ED039091EE03069799F082E591E0F8
:1017E0000E94870308C061E082E591E00E949303B4
:1017F0000630110559F48091ED039091EE0307979F
:1018000099F08CE491E00E94870308C061E08CE4C9
:1018100091E00E9493030730110559F48091ED0384
:101820009091EE03089751F086E491E00E948703BF
:1018300005C061E086E491E00E94930380918501F8
:10184000909186012091F5032111C8C41092700176
:1018500007970CF096C48091830190918401909336
:101860000201809301011091050480917701811795
:10187000A9F0112389F00E942A040E947B0360933F
:1018800034017093350180933601909337011092A3
:10189000780182E00E948E00109377010E947B0302
:1018A00000913401109135012091360130913701BA
:1018B000601B710B820B930B603D77408105910596
:1018C00008F06DCD1092EE031092ED0368CDD0922A
:1018D0000201C0920101C7CFD0920201C092010162
:1018E00023C50230110551F481E791E00E9487037E
:1018F00061E08AE691E00E94930354C5033011052C
:1019000009F043C081E791E00E9487038AE691E0F5
:101910000E94870361E084E691E00E9493038EE5D4
:1019200091E00E94870388E591E00E94870382E5A9
:1019300091E00E9487038CE491E00E94870386E493
:1019400091E00E9487030730110509F043C081E749
:1019500091E00E9487038AE691E00E94870384E673
:1019600091E00E9487038EE591E00E94870388E55D
:1019700091E00E94870382E591E00E94870361E085
:101980008CE491E00E94930367C00430110509F0D4
:1019900042C081E791E00E9487038AE691E00E94BD
:1019A000870384E691E00E94870361E08EE591E081
:1019B0000E94930388E591E00E94870382E591E00D
:1019C0000E9487038CE491E00E94870386E491E003
:1019D0000E9487030830110509F064C181E791E096
:1019E0000E9487038AE691E00E94870384E691E0E3
:1019F0000E9487038EE591E00E94870388E591E0CD
:101A00000E94870382E591E00E9487038CE491E0C5
:101A10000E94870342C10530110509F0DBC481E74C
:101A200091E00E9487038AE691E00E94870384E6A2
:101A300091E00E9487038EE591E00E94870361E0B8
:101A400088E591E00E94930382E591E00E9487037C
:101A50008CE491E00E94870386E491E00E94870372
:101A600021C10130110509F049C081E791E00E94D0
:101A7000870361E08AE691E00E94930361E084E6D7
:101A800091E00E94930361E08EE591E00E94930350
:101A900061E088E591E00E94930361E082E591E0D6
:101AA0000E94930361E08CE491E00E94930361E063
:101AB00086E491E00E9493030630110509F056C0B8
:101AC00061E081E791E00E94930361E08AE691E0A2
:101AD0000E94930361E084E691E00E94930361E039
:101AE0008EE591E00E94930361E088E591E00E9419
:101AF000930382E591E00E948703CAC0023011057A
:101B000051F461E081E791E00E9493038AE691E05D
:101B10000E948703B3CF0330110509F04AC061E08A
:101B200081E791E00E94930361E08AE691E00E94E0
:101B3000930384E691E00E94870361E08EE591E0E3
:101B40000E94930361E088E591E00E94930361E0C5
:101B500082E591E00E94930361E08CE491E00E94B1
:101B6000930361E086E491E00E949303073011053E
:101B700009F04AC061E081E791E00E94930361E0CF
:101B80008AE691E00E94930361E084E691E00E947E
:101B9000930361E08EE591E00E94930361E088E5A4
:101BA00091E00E94930361E082E591E00E9493033B
:101BB0002DCF0430110509F04AC061E081E791E0C2
:101BC0000E94930361E08AE691E00E94930361E042
:101BD00084E691E00E9493038EE591E00E948703E2
:101BE00061E088E591E00E94930361E082E591E085
:101BF0000E94930361E08CE491E00E94930361E012
:101C000086E491E00E9493030830110509F04AC070
:101C100061E081E791E00E94930361E08AE691E050
:101C20000E94930361E084E691E00E94930361E0E7
:101C30008EE591E00E94930361E088E591E00E94C7
:101C4000930361E082E591E00E94930398CE053012
:101C5000110509F031CF61E081E791E00E94930323
:101C600061E08AE691E00E94930361E084E691E0FE
:101C70000E94930361E08EE591E00E94930388E562
:101C800091E00E94870361E082E591E00E94930366
:101C900061E08CE491E00E94930361E086E491E0CE
:101CA0000E94930380910504811105C080911A045C
:101CB000882309F474CB1092EE031092ED03109276
:101CC00081011092780110927F0110927E010E9492
:101CD0007B036093790170937A0180937B019093E9
:101CE0007C011092700121E020937D0158CB00917E
:101CF0007E0110917F010A3011050CF079C00E941D
:101D00007B034090790150907A0160907B01709044
:101D10007C01641975098609970965387340810546
:101D2000910508F465C061E081E791E00E949303AA
:101D300061E08AE691E00E94930361E084E691E02D
:101D40000E94930361E08EE591E00E94930361E0BD
:101D500088E591E00E94930361E082E591E00E94B2
:101D6000930361E08CE491E00E94930361E086E4D8
:101D700091E00E94930380E293E00E94350164E6C3
:101D800070E080E090E00E94490382E00E948E00B3
:101D900081E791E00E9487038AE691E00E94870331
:101DA00084E691E00E9487038EE591E00E9487031C
:101DB00088E591E00E94870382E591E00E94870315
:101DC0008CE491E00E94870386E491E00E948703FF
:101DD0000F5F1F4F10937F0100937E010E947B03D2
:101DE0006093790170937A0180937B0190937C01D9
:101DF00080917E0190917F010A9709F059C061E0BE
:101E000081E791E00E94930361E08AE691E00E94FD
:101E1000930361E084E691E00E94930361E08EE524
:101E200091E00E94930361E088E591E00E949303B2
:101E300061E082E591E00E94930361E08CE491E02F
:101E40000E94930361E086E491E00E94930380E2A4
:101E500093E00E94350164EF71E080E090E00E9421
:101E6000490382E00E948E0081E791E00E9487038F
:101E70008AE691E00E94870384E691E00E9487034E
:101E80008EE591E00E94870388E591E00E94870338
:101E900082E591E00E9487038CE491E00E94870331
:101EA00086E491E00E9487030E94D80310927D018E
:101EB00080911304882309F472CA10927D016FCABD
:101EC0000E94180498CA6AE070E0C8010E944C049D
:101ED00092CA0E941804DACA0E94180427CB6AE04A
:101EE00070E0C3010E944C0421CB0E94180466CB11
:101EF0000230110521F00830110509F046C381E7D1
:101F000091E00E94870388E591E00E94870361E0E9
:101F10008AE691E00E94930382E591E00E948703A4
:101F200084E691E00E94870361E08CE491E00E94E6
:101F300093038EE591E00E94870386E491E00E947E
:101F4000870323C3093011050CF48FC310921B01C2
:101F500010921A018AC380917801882309F48AC3F8
:101F600080910101909102010E94350180E090E092
:101F7000892B11F40C94C7050E9400000C94BC0539
:101F80000E947B0300914201109143012091440182
:101F900030914501601B710B820B930B6536710507
:101FA0008105910580F08091000131E083278093C5
:101FB00000010E947B036093420170934301809370
:101FC00044019093450180910001882309F44FCB8F
:101FD000B0920201A0920101E2C9101611066CF440
:101FE0000E947B0360933E0170933F018093400108
:101FF0009093410141E040937001809170018823EA
:1020000009F4A0C00E947B0300914201109143019A
:102010002091440130914501601B710B820B930BA1
:10202000653671058105910580F08091000151E0D0
:102030008527809300010E947B0360934201709387
:1020400043018093440190934501809100018823CE
:1020500009F412CBB0920201A09201010E947B030D
:1020600000913A0110913B0120913C0130913D01DA
:10207000601B710B820B930B693E734081059105C8
:1020800080F08091390111E08127809339010E940D
:102090007B0360933A0170933B0180933C019093E2
:1020A0003D0180913901882309F4EBCA61E081E7A1
:1020B00091E00E9493038AE691E00E94870361E029
:1020C00084E691E00E9493038EE591E00E948703ED
:1020D00061E088E591E00E94930382E591E00E942F
:1020E000870361E08CE491E00E94930386E491E031
:1020F0000E9487030E947B0300913E0110913F01E3
:102100002091400130914101601B710B820B930BB8
:102110006133754781059105A8F0109278011092FE
:102120007F0110927E010E947B036093790170937E
:102130007A0180937B0190937C011092700131E0D1
:1021400030937D0180910504811105C080911A04AE
:10215000882309F424C91092780110927F0110920B
:102160007E010E947B036093790170937A018093D2
:102170007B0190937C011092700141E040937D01BE
:102180000EC90E947B0300914201109143012091EE
:10219000440130914501601B710B820B930B653636
:1021A00071058105910580F08091000191E08927FA
:1021B000809300010E947B0360934201709343016E
:1021C000809344019093450180910001882309F494
:1021D0007ECBB0920201A092010145CB18161906E0
:1021E0001CF411E010937001109170018091330183
:1021F000811749F1112329F18091FE03882319F0F9
:1022000021E0209378010E947B0360933E0170934C
:102210003F0180934001909341010E947B036093B2
:102220002F017093300180933101909332010E940D
:102230007B0360932B0170932C0180932D0190936D
:102240002E0110933301112309F42CCD8091380114
:10225000811128CD0E947B0300913E0110913F0126
:102260002091400130914101601B710B820B930B57
:102270006133754781059105A8F01092780110929D
:102280007F0110927E010E947B036093790170931D
:102290007A0180937B0190937C011092700141E060
:1022A00040937D010E947B0300912B0110912C0132
:1022B00020912D0130912E01601B710B820B930B2D
:1022C000693E73408105910518F081E0809381019A
:1022D0000E947B030091420110914301209144012F
:1022E00030914501601B710B820B930B65367105B4
:1022F0008105910580F08091000191E0892780930C
:1023000000010E947B03609342017093430180931C
:1023100044019093450180910001882309F4DCCAAF
:10232000B0920201A092010180918101882309F4F9
:10233000B9CC0E947B0300912F01109130012091B4
:10234000310130913201601B710B820B930B693E9E
:1023500073408105910580F08091390111E081275A
:10236000809339010E947B0360932F0170933001A9
:1023700080933101909332010091ED031091EE03AF
:1023800080913901882309F46CCB0130110509F0E3
:10239000A8CA61E081E791E00E9493038AE691E098
:1023A0000E94870384E691E00E9487038EE591E016
:1023B0000E94870388E591E00E94870382E591E00F
:1023C0000E9487038CE491E00E94870386E491E0F9
:1023D0000E9487030630110509F0B5CA81E791E034
:1023E0000E9487038AE691E00E94870384E691E0D9
:1023F0000E9487038EE591E00E94870388E591E0C3
:102400000E94870361E082E591E00E94930320CB64
:10241000112309F429C981E08093150180911501E8
:1024200090911401981781F0882351F0109288013F
:102430001092870164E170E090E080E00E944C041B
:1024400080911501809314010E947B030091160175
:10245000109117012091180130911901601B710B27
:10246000820B930B653070418105910510F010923D
:10247000380110913801112341F1109278010E9426
:102480007B0340901C0150901D0160901E017090D4
:102490001F016419750986099709653F7140810517
:1024A000910598F080911A0190911B0101969093EB
:1024B0001B0180931A010E947B0360931C0170939F
:1024C0001D0180931E0190931F0180911301181725
:1024D00091F111112CC064E170E08091870190911D
:1024E00088010E944C0481E791E00E94870388E5FF
:1024F00091E00E9487038AE691E00E94870382E5CB
:1025000091E00E94870384E691E00E9487038CE4B7
:1025100091E00E9487038EE591E00E94870386E4A4
:1025200091E00E94870310921B0110921A01809182
:1025300038018093130100911A0110911B010130A1
:10254000110509F0D5CC61E081E791E00E94930389
:1025500088E591E00E9487038AE691E00E94870364
:1025600082E591E00E94870384E691E00E94870360
:102570008CE491E00E9487038EE591E00E9487033E
:1025800061E086E491E00E949303C8018B7F03978A
:1025900011F581E791E00E94870388E591E00E94B0
:1025A00087038AE691E00E94870361E082E591E07B
:1025B0000E94930361E084E691E00E9493038CE41F
:1025C00091E00E9487038EE591E00E94870386E4F4
:1025D00091E00E948703C8018D7F049711F581E780
:1025E00091E00E94870361E088E591E00E949303F7
:1025F0008AE691E00E94870382E591E00E948703CA
:1026000084E691E00E9487038CE491E00E948703B6
:1026100061E08EE591E00E94930386E491E00E94E0
:1026200087030530110509F08DCC81E791E00E9408
:10263000870388E591E00E9487038AE691E00E9483
:10264000870382E591E00E94870384E691E00E947F
:1026500087038CE491E00E9487038EE591E00E945D
:10266000870386E491E00E9487038091FE03813016
:1026700009F471CC82E00E948E0078CC63E089E29C
:1026800094E00E94B40364E082E294E00E94B40308
:1026900065E08BE194E00E94B40366E084E194E09D
:1026A0000E94B40367E08DE094E00E94B40368E008
:1026B00086E094E00E94B40360E08FEF93E00E9414
:1026C000B40361E088EF93E00E94B40369E081E71E
:1026D00091E00E94B4036AE08AE691E00E94B403AC
:1026E0006BE084E691E00E94B4036CE08EE591E03B
:1026F0000E94B4036DE088E591E00E94B4036EE0AF
:1027000082E591E00E94B4036FE08CE491E00E94C6
:10271000B40360E186E491E00C94B40386E491E0B4
:102720000E943C048CE491E00E943C0482E591E02C
:102730000E943C0488E591E00E943C048EE591E013
:102740000E943C0484E691E00E943C048AE691E009
:102750000E943C0481E791E00E943C0488EF93E0F2
:102760000E943C048FEF93E00E943C0486E094E0DA
:102770000E943C048DE094E00E943C0484E194E0DB
:102780000E943C048BE194E00E943C0482E294E0CD
:102790000E943C0489E294E00C943C04F999FECF39
:1027A00092BD81BDF89A992780B50895262FF99991
:1027B000FECF1FBA92BD81BD20BD0FB6F894FA9A24
:1027C000F99A0FBE01960895052E97FB1EF400940A
:1027D0000E94FB1357FD07D00E94031407FC03D08F
:1027E0004EF40C94FB1350954095309521953F4F36
:1027F0004F4F5F4F089590958095709561957F4FED
:102800008F4F9F4F0895A1E21A2EAA1BBB1BFD01FB
:102810000DC0AA1FBB1FEE1FFF1FA217B307E407BF
:10282000F50720F0A21BB30BE40BF50B661F771F17
:10283000881F991F1A9469F76095709580959095F7
:102840009B01AC01BD01CF0108950E94D91408F489
:1028500081E008950E943E140C9414150E940D15F9
:1028600058F00E94061540F029F45F3F29F00C94BF
:10287000FD1451110C9448150C9403150E94251554
:1028800068F39923B1F3552391F3951B550BBB279F
:10289000AA2762177307840738F09F5F5F4F220FE4
:1028A000331F441FAA1FA9F335D00E2E3AF0E0E8DB
:1028B00032D091505040E695001CCAF72BD0FE2F25
:1028C00029D0660F771F881FBB1F261737074807B9
:1028D000AB07B0E809F0BB0B802DBF01FF27935871
:1028E0005F4F3AF09E3F510578F00C94FD140C9424
:1028F00048155F3FE4F3983ED4F386957795679546
:10290000B795F7959F5FC9F7880F911D96958795A5
:1029100097F90895E1E0660F771F881FBB1F6217C4
:1029200073078407BA0720F0621B730B840BBA0B82
:10293000EE1F88F7E0950895E89409C097FB3EF4F0
:1029400090958095709561957F4F8F4F9F4F9923FC
:10295000A9F0F92F96E9BB279395F695879577957A
:102960006795B795F111F8CFFAF4BB0F11F460FF3A
:102970001BC06F5F7F4F8F4F9F4F16C0882311F092
:1029800096E911C0772321F09EE8872F762F05C0A6
:10299000662371F096E8862F70E060E02AF09A9541
:1029A000660F771F881FDAF7880F9695879597F936
:1029B0000895990F0008550FAA0BE0E8FEEF1616D0
:1029C0001706E807F907C0F012161306E407F50723
:1029D00098F0621B730B840B950B39F40A2661F097
:1029E000232B242B252B21F408950A2609F4A1403A
:1029F000A6958FEF811D811D089597F99F6780E847
:102A000070E060E008959FEF80EC089500240A9440
:102A10001616170618060906089500240A941216B9
:102A20001306140605060895092E0394000C11F4EC
:102A3000882352F0BB0F40F4BF2B11F460FF04C099
:102A40006F5F7F4F8F4F9F4F089557FD9058440FF2
:102A5000551F59F05F3F71F04795880F97FB991FFD
:102A600061F09F3F79F087950895121613061406BA
:102A7000551FF2CF4695F1DF08C016161706180647
:102A8000991FF1CF86957105610508940895E89422
:102A9000BB2766277727CB0197F908950E94D914A1
:102AA00008F48FEF089597FB072E16F4009407D0D3
:102AB00077FD09D00E94671507FC05D03EF490957C
:102AC00081959F4F0895709561957F4F0895AA1B3A
:102AD000BB1B51E107C0AA1FBB1FA617B70710F009
:102AE000A61BB70B881F991F5A95A9F7809590953B
:102AF000BC01CD010895EE0FFF1F0590F491E02D6C
:102B0000099410E0C3E6D0E004C0FE010E947B15EA
:102B10002196C436D107C9F7F894FFCF013C0000D5
:022B200002FFB2
:107E0000112484B714BE81FFF0D085E080938100F7
:107E100082E08093C00088E18093C10086E0809377
:107E2000C20080E18093C4008EE0C9D0259A86E02C
:107E300020E33CEF91E0309385002093840096BBD3
:107E4000B09BFECF1D9AA8958150A9F7CC24DD24C4
:107E500088248394B5E0AB2EA1E19A2EF3E0BF2EE7
:107E6000A2D0813461F49FD0082FAFD0023811F036
:107E7000013811F484E001C083E08DD089C08234E0
:107E800011F484E103C0853419F485E0A6D080C0E4
:107E9000853579F488D0E82EFF2485D0082F10E0AE
:107EA000102F00270E291F29000F111F8ED06801E7
:107EB0006FC0863521F484E090D080E0DECF843638
:107EC00009F040C070D06FD0082F6DD080E0C81688
:107ED00080E7D80618F4F601B7BEE895C0E0D1E017
:107EE00062D089930C17E1F7F0E0CF16F0E7DF06D8
:107EF00018F0F601B7BEE89568D007B600FCFDCFD4
:107F0000A601A0E0B1E02C9130E011968C91119780
:107F100090E0982F8827822B932B1296FA010C0160
:107F200087BEE89511244E5F5F4FF1E0A038BF0790
:107F300051F7F601A7BEE89507B600FCFDCF97BE46
:107F4000E89526C08437B1F42ED02DD0F82E2BD052
:107F50003CD0F601EF2C8F010F5F1F4F84911BD097
:107F6000EA94F801C1F70894C11CD11CFA94CF0C13
:107F7000D11C0EC0853739F428D08EE10CD085E9AC
:107F80000AD08FE07ACF813511F488E018D01DD067
:107F900080E101D065CF982F8091C00085FFFCCF94
:107FA0009093C60008958091C00087FFFCCF809118
:107FB000C00084FD01C0A8958091C6000895E0E648
:107FC000F0E098E1908380830895EDDF803219F02E
:107FD00088E0F5DFFFCF84E1DECF1F93182FE3DFCA
:107FE0001150E9F7F2DF1F91089580E0E8DFEE27F6
:047FF000FF270994CA
:027FFE00040479
:00000001FF
